{
  "contractName": "Marketplace",
  "abi": [
    {
      "anonymous": false,
      "inputs": [
        {
          "indexed": false,
          "internalType": "uint256",
          "name": "id",
          "type": "uint256"
        },
        {
          "indexed": false,
          "internalType": "string",
          "name": "title",
          "type": "string"
        },
        {
          "indexed": false,
          "internalType": "uint256",
          "name": "price",
          "type": "uint256"
        },
        {
          "indexed": false,
          "internalType": "address",
          "name": "owner",
          "type": "address"
        }
      ],
      "name": "ProjectCreated",
      "type": "event"
    },
    {
      "anonymous": false,
      "inputs": [
        {
          "indexed": false,
          "internalType": "uint256",
          "name": "id",
          "type": "uint256"
        },
        {
          "indexed": false,
          "internalType": "address",
          "name": "buyer",
          "type": "address"
        }
      ],
      "name": "ProjectPurchased",
      "type": "event"
    },
    {
      "inputs": [],
      "name": "projectCount",
      "outputs": [
        {
          "internalType": "uint256",
          "name": "",
          "type": "uint256"
        }
      ],
      "stateMutability": "view",
      "type": "function"
    },
    {
      "inputs": [
        {
          "internalType": "uint256",
          "name": "",
          "type": "uint256"
        }
      ],
      "name": "projects",
      "outputs": [
        {
          "internalType": "uint256",
          "name": "id",
          "type": "uint256"
        },
        {
          "internalType": "address payable",
          "name": "owner",
          "type": "address"
        },
        {
          "internalType": "string",
          "name": "title",
          "type": "string"
        },
        {
          "internalType": "string",
          "name": "description",
          "type": "string"
        },
        {
          "internalType": "uint256",
          "name": "price",
          "type": "uint256"
        },
        {
          "internalType": "bool",
          "name": "sold",
          "type": "bool"
        }
      ],
      "stateMutability": "view",
      "type": "function"
    },
    {
      "inputs": [
        {
          "internalType": "string",
          "name": "_title",
          "type": "string"
        },
        {
          "internalType": "string",
          "name": "_description",
          "type": "string"
        },
        {
          "internalType": "uint256",
          "name": "_price",
          "type": "uint256"
        }
      ],
      "name": "createProject",
      "outputs": [],
      "stateMutability": "nonpayable",
      "type": "function"
    },
    {
      "inputs": [
        {
          "internalType": "uint256",
          "name": "_id",
          "type": "uint256"
        }
      ],
      "name": "purchaseProject",
      "outputs": [],
      "stateMutability": "payable",
      "type": "function"
    }
  ],
  "bytecode": "0x608060405234801561001057600080fd5b50610e19806100206000396000f3fe60806040526004361061003f5760003560e01c8063107046bd1461004457806323c554481461008657806336fbad26146100af578063d2b527fe146100da575b600080fd5b34801561005057600080fd5b5061006b6004803603810190610066919061093d565b6100f6565b60405161007d96959493929190610adf565b60405180910390f35b34801561009257600080fd5b506100ad60048036038101906100a891906108be565b61026f565b005b3480156100bb57600080fd5b506100c46103df565b6040516100d19190610a9b565b60405180910390f35b6100f460048036038101906100ef919061093d565b6103e5565b005b60006020528060005260406000206000915090508060000154908060010160009054906101000a900473ffffffffffffffffffffffffffffffffffffffff169080600201805461014590610cb3565b80601f016020809104026020016040519081016040528092919081815260200182805461017190610cb3565b80156101be5780601f10610193576101008083540402835291602001916101be565b820191906000526020600020905b8154815290600101906020018083116101a157829003601f168201915b5050505050908060030180546101d390610cb3565b80601f01602080910402602001604051908101604052809291908181526020018280546101ff90610cb3565b801561024c5780601f106102215761010080835404028352916020019161024c565b820191906000526020600020905b81548152906001019060200180831161022f57829003601f168201915b5050505050908060040154908060050160009054906101000a900460ff16905086565b6001600081548092919061028290610ce5565b91905055506040518060c0016040528060015481526020013373ffffffffffffffffffffffffffffffffffffffff1681526020018481526020018381526020018281526020016000151581525060008060015481526020019081526020016000206000820151816000015560208201518160010160006101000a81548173ffffffffffffffffffffffffffffffffffffffff021916908373ffffffffffffffffffffffffffffffffffffffff160217905550604082015181600201908051906020019061035092919061079e565b50606082015181600301908051906020019061036d92919061079e565b506080820151816004015560a08201518160050160006101000a81548160ff0219169083151502179055509050507fbb4637bbc1f7f92783410fb90807fcced52c1562da987ac649876f09a750a5e36001548483336040516103d29493929190610b4e565b60405180910390a1505050565b60015481565b60008060008381526020019081526020016000206040518060c0016040529081600082015481526020016001820160009054906101000a900473ffffffffffffffffffffffffffffffffffffffff1673ffffffffffffffffffffffffffffffffffffffff1673ffffffffffffffffffffffffffffffffffffffff16815260200160028201805461047490610cb3565b80601f01602080910402602001604051908101604052809291908181526020018280546104a090610cb3565b80156104ed5780601f106104c2576101008083540402835291602001916104ed565b820191906000526020600020905b8154815290600101906020018083116104d057829003601f168201915b5050505050815260200160038201805461050690610cb3565b80601f016020809104026020016040519081016040528092919081815260200182805461053290610cb3565b801561057f5780601f106105545761010080835404028352916020019161057f565b820191906000526020600020905b81548152906001019060200180831161056257829003601f168201915b50505050508152602001600482015481526020016005820160009054906101000a900460ff1615151515815250509050348160800151146105f5576040517f08c379a00000000000000000000000000000000000000000000000000000000081526004016105ec90610a7b565b60405180910390fd5b8060a001511561063a576040517f08c379a000000000000000000000000000000000000000000000000000000000815260040161063190610a5b565b60405180910390fd5b806020015173ffffffffffffffffffffffffffffffffffffffff166108fc349081150290604051600060405180830381858888f19350505050158015610684573d6000803e3d6000fd5b5060018160a0019015159081151581525050806000808481526020019081526020016000206000820151816000015560208201518160010160006101000a81548173ffffffffffffffffffffffffffffffffffffffff021916908373ffffffffffffffffffffffffffffffffffffffff160217905550604082015181600201908051906020019061071692919061079e565b50606082015181600301908051906020019061073392919061079e565b506080820151816004015560a08201518160050160006101000a81548160ff0219169083151502179055509050507f453ba6b15c39fcd2b31274fe6023506dd51f8a24350de20b9d1ecdc8bd7147968233604051610792929190610ab6565b60405180910390a15050565b8280546107aa90610cb3565b90600052602060002090601f0160209004810192826107cc5760008555610813565b82601f106107e557805160ff1916838001178555610813565b82800160010185558215610813579182015b828111156108125782518255916020019190600101906107f7565b5b5090506108209190610824565b5090565b5b8082111561083d576000816000905550600101610825565b5090565b600061085461084f84610bcb565b610b9a565b90508281526020810184848401111561086c57600080fd5b610877848285610c71565b509392505050565b600082601f83011261089057600080fd5b81356108a0848260208601610841565b91505092915050565b6000813590506108b881610dcc565b92915050565b6000806000606084860312156108d357600080fd5b600084013567ffffffffffffffff8111156108ed57600080fd5b6108f98682870161087f565b935050602084013567ffffffffffffffff81111561091657600080fd5b6109228682870161087f565b9250506040610933868287016108a9565b9150509250925092565b60006020828403121561094f57600080fd5b600061095d848285016108a9565b91505092915050565b61096f81610c29565b82525050565b61097e81610c17565b82525050565b61098d81610c3b565b82525050565b600061099e82610bfb565b6109a88185610c06565b93506109b8818560208601610c80565b6109c181610dbb565b840191505092915050565b60006109d9601483610c06565b91507f50726f6a65637420616c726561647920736f6c640000000000000000000000006000830152602082019050919050565b6000610a19601583610c06565b91507f496e636f72726563742045746865722076616c756500000000000000000000006000830152602082019050919050565b610a5581610c67565b82525050565b60006020820190508181036000830152610a74816109cc565b9050919050565b60006020820190508181036000830152610a9481610a0c565b9050919050565b6000602082019050610ab06000830184610a4c565b92915050565b6000604082019050610acb6000830185610a4c565b610ad86020830184610975565b9392505050565b600060c082019050610af46000830189610a4c565b610b016020830188610966565b8181036040830152610b138187610993565b90508181036060830152610b278186610993565b9050610b366080830185610a4c565b610b4360a0830184610984565b979650505050505050565b6000608082019050610b636000830187610a4c565b8181036020830152610b758186610993565b9050610b846040830185610a4c565b610b916060830184610975565b95945050505050565b6000604051905081810181811067ffffffffffffffff82111715610bc157610bc0610d8c565b5b8060405250919050565b600067ffffffffffffffff821115610be657610be5610d8c565b5b601f19601f8301169050602081019050919050565b600081519050919050565b600082825260208201905092915050565b6000610c2282610c47565b9050919050565b6000610c3482610c47565b9050919050565b60008115159050919050565b600073ffffffffffffffffffffffffffffffffffffffff82169050919050565b6000819050919050565b82818337600083830152505050565b60005b83811015610c9e578082015181840152602081019050610c83565b83811115610cad576000848401525b50505050565b60006002820490506001821680610ccb57607f821691505b60208210811415610cdf57610cde610d5d565b5b50919050565b6000610cf082610c67565b91507fffffffffffffffffffffffffffffffffffffffffffffffffffffffffffffffff821415610d2357610d22610d2e565b5b600182019050919050565b7f4e487b7100000000000000000000000000000000000000000000000000000000600052601160045260246000fd5b7f4e487b7100000000000000000000000000000000000000000000000000000000600052602260045260246000fd5b7f4e487b7100000000000000000000000000000000000000000000000000000000600052604160045260246000fd5b6000601f19601f8301169050919050565b610dd581610c67565b8114610de057600080fd5b5056fea2646970667358221220d33b56189658e086a69c8bc8ec24eb6cfcb953448f355d321e1ee80e51851ef864736f6c63430008000033",
  "immutableReferences": {},
  "source": "// contracts/Marketplace.sol\r\npragma solidity ^0.8.0;\r\n\r\ncontract Marketplace {\r\n    struct Project {\r\n        uint id;\r\n        address payable owner;\r\n        string title;\r\n        string description;\r\n        uint price;\r\n        bool sold;\r\n    }\r\n\r\n    mapping(uint => Project) public projects;\r\n    uint public projectCount;\r\n\r\n    event ProjectCreated(uint id, string title, uint price, address owner);\r\n    event ProjectPurchased(uint id, address buyer);\r\n\r\n    function createProject(string memory _title, string memory _description, uint _price) public {\r\n        projectCount++;\r\n        projects[projectCount] = Project(projectCount, payable(msg.sender), _title, _description, _price, false);\r\n        emit ProjectCreated(projectCount, _title, _price, msg.sender);\r\n    }\r\n\r\n    function purchaseProject(uint _id) public payable {\r\n        Project memory _project = projects[_id];\r\n        require(_project.price == msg.value, \"Incorrect Ether value\");\r\n        require(!_project.sold, \"Project already sold\");\r\n\r\n        _project.owner.transfer(msg.value);\r\n        _project.sold = true;\r\n        projects[_id] = _project;\r\n\r\n        emit ProjectPurchased(_id, msg.sender);\r\n    }\r\n}\r\n",
  "sourcePath": "C:\\Users\\Rajeev tfr\\Desktop\\intertWIN\\intertWIN\\blockchain\\contracts\\Marketplace.sol",
  "compiler": {
    "name": "solc",
    "version": "0.8.0+commit.c7dfd78e.Emscripten.clang"
  },
  "schemaVersion": "3.4.16",
  "updatedAt": "2024-10-18T13:07:57.786Z",
  "devdoc": {
    "kind": "dev",
    "methods": {},
    "version": 1
  },
  "userdoc": {
    "kind": "user",
    "methods": {},
    "version": 1
  }
}