{
  "contractName": "Marketplace",
  "abi": [
    {
      "anonymous": false,
      "inputs": [
        {
          "indexed": false,
          "internalType": "uint256",
          "name": "id",
          "type": "uint256"
        },
        {
          "indexed": false,
          "internalType": "string",
          "name": "title",
          "type": "string"
        },
        {
          "indexed": false,
          "internalType": "string",
          "name": "description",
          "type": "string"
        },
        {
          "indexed": false,
          "internalType": "uint256",
          "name": "price",
          "type": "uint256"
        },
        {
          "indexed": false,
          "internalType": "address",
          "name": "owner",
          "type": "address"
        }
      ],
      "name": "ProjectCreated",
      "type": "event"
    },
    {
      "anonymous": false,
      "inputs": [
        {
          "indexed": false,
          "internalType": "uint256",
          "name": "id",
          "type": "uint256"
        },
        {
          "indexed": false,
          "internalType": "address",
          "name": "buyer",
          "type": "address"
        },
        {
          "indexed": false,
          "internalType": "uint256",
          "name": "value",
          "type": "uint256"
        }
      ],
      "name": "ProjectPurchased",
      "type": "event"
    },
    {
      "inputs": [],
      "name": "projectCount",
      "outputs": [
        {
          "internalType": "uint256",
          "name": "",
          "type": "uint256"
        }
      ],
      "stateMutability": "view",
      "type": "function",
      "constant": true
    },
    {
      "inputs": [
        {
          "internalType": "uint256",
          "name": "",
          "type": "uint256"
        }
      ],
      "name": "projects",
      "outputs": [
        {
          "internalType": "uint256",
          "name": "id",
          "type": "uint256"
        },
        {
          "internalType": "string",
          "name": "title",
          "type": "string"
        },
        {
          "internalType": "string",
          "name": "description",
          "type": "string"
        },
        {
          "internalType": "uint256",
          "name": "price",
          "type": "uint256"
        },
        {
          "internalType": "address payable",
          "name": "owner",
          "type": "address"
        },
        {
          "internalType": "bool",
          "name": "purchased",
          "type": "bool"
        }
      ],
      "stateMutability": "view",
      "type": "function",
      "constant": true
    },
    {
      "inputs": [
        {
          "internalType": "string",
          "name": "_title",
          "type": "string"
        },
        {
          "internalType": "string",
          "name": "_description",
          "type": "string"
        },
        {
          "internalType": "uint256",
          "name": "_price",
          "type": "uint256"
        }
      ],
      "name": "createProject",
      "outputs": [],
      "stateMutability": "nonpayable",
      "type": "function"
    },
    {
      "inputs": [
        {
          "internalType": "uint256",
          "name": "_projectId",
          "type": "uint256"
        }
      ],
      "name": "purchaseProject",
      "outputs": [],
      "stateMutability": "payable",
      "type": "function",
      "payable": true
    }
  ],
  "bytecode": "0x608060405234801561001057600080fd5b50610ecc806100206000396000f3fe60806040526004361061003f5760003560e01c8063107046bd1461004457806323c554481461008657806336fbad26146100af578063d2b527fe146100da575b600080fd5b34801561005057600080fd5b5061006b60048036038101906100669190610827565b6100f6565b60405161007d96959493929190610bde565b60405180910390f35b34801561009257600080fd5b506100ad60048036038101906100a891906107a8565b61026f565b005b3480156100bb57600080fd5b506100c46104ad565b6040516100d19190610b2b565b60405180910390f35b6100f460048036038101906100ef9190610827565b6104b3565b005b600060205280600052604060002060009150905080600001549080600101805461011f90610d66565b80601f016020809104026020016040519081016040528092919081815260200182805461014b90610d66565b80156101985780601f1061016d57610100808354040283529160200191610198565b820191906000526020600020905b81548152906001019060200180831161017b57829003601f168201915b5050505050908060020180546101ad90610d66565b80601f01602080910402602001604051908101604052809291908181526020018280546101d990610d66565b80156102265780601f106101fb57610100808354040283529160200191610226565b820191906000526020600020905b81548152906001019060200180831161020957829003601f168201915b5050505050908060030154908060040160009054906101000a900473ffffffffffffffffffffffffffffffffffffffff16908060040160149054906101000a900460ff16905086565b60008351116102b3576040517f08c379a00000000000000000000000000000000000000000000000000000000081526004016102aa90610acb565b60405180910390fd5b60008251116102f7576040517f08c379a00000000000000000000000000000000000000000000000000000000081526004016102ee90610a6b565b60405180910390fd5b600081101561033b576040517f08c379a000000000000000000000000000000000000000000000000000000000815260040161033290610aeb565b60405180910390fd5b6001600081548092919061034e90610d98565b91905055506040518060c0016040528060015481526020018481526020018381526020018281526020013373ffffffffffffffffffffffffffffffffffffffff1681526020016000151581525060008060015481526020019081526020016000206000820151816000015560208201518160010190805190602001906103d5929190610688565b5060408201518160020190805190602001906103f2929190610688565b506060820151816003015560808201518160040160006101000a81548173ffffffffffffffffffffffffffffffffffffffff021916908373ffffffffffffffffffffffffffffffffffffffff16021790555060a08201518160040160146101000a81548160ff0219169083151502179055509050507fe6750b954816279a5e8d90412eecd1c9e7af46d960123b95bf7da9e8fbf69893600154848484336040516104a0959493929190610b7d565b60405180910390a1505050565b60015481565b6000811180156104c557506001548111155b610504576040517f08c379a00000000000000000000000000000000000000000000000000000000081526004016104fb90610aab565b60405180910390fd5b600080600083815260200190815260200160002090508060040160149054906101000a900460ff161561056c576040517f08c379a000000000000000000000000000000000000000000000000000000000815260040161056390610b0b565b60405180910390fd5b6000816003015411156105c15780600301543410156105c0576040517f08c379a00000000000000000000000000000000000000000000000000000000081526004016105b790610a8b565b60405180910390fd5b5b60018160040160146101000a81548160ff0219169083151502179055508060040160009054906101000a900473ffffffffffffffffffffffffffffffffffffffff1673ffffffffffffffffffffffffffffffffffffffff166108fc349081150290604051600060405180830381858888f19350505050158015610648573d6000803e3d6000fd5b507fdf755d8f952107c926a541725b0d29ee5f8fae42a9c647c977711eaea025d87c82333460405161067c93929190610b46565b60405180910390a15050565b82805461069490610d66565b90600052602060002090601f0160209004810192826106b657600085556106fd565b82601f106106cf57805160ff19168380011785556106fd565b828001600101855582156106fd579182015b828111156106fc5782518255916020019190600101906106e1565b5b50905061070a919061070e565b5090565b5b8082111561072757600081600090555060010161070f565b5090565b600061073e61073984610c7e565b610c4d565b90508281526020810184848401111561075657600080fd5b610761848285610d24565b509392505050565b600082601f83011261077a57600080fd5b813561078a84826020860161072b565b91505092915050565b6000813590506107a281610e7f565b92915050565b6000806000606084860312156107bd57600080fd5b600084013567ffffffffffffffff8111156107d757600080fd5b6107e386828701610769565b935050602084013567ffffffffffffffff81111561080057600080fd5b61080c86828701610769565b925050604061081d86828701610793565b9150509250925092565b60006020828403121561083957600080fd5b600061084784828501610793565b91505092915050565b61085981610cdc565b82525050565b61086881610cca565b82525050565b61087781610cee565b82525050565b600061088882610cae565b6108928185610cb9565b93506108a2818560208601610d33565b6108ab81610e6e565b840191505092915050565b60006108c3601f83610cb9565b91507f50726f6a656374206465736372697074696f6e206973207265717569726564006000830152602082019050919050565b6000610903601283610cb9565b91507f496e73756666696369656e742066756e647300000000000000000000000000006000830152602082019050919050565b6000610943601283610cb9565b91507f496e76616c69642070726f6a65637420494400000000000000000000000000006000830152602082019050919050565b6000610983601983610cb9565b91507f50726f6a656374207469746c65206973207265717569726564000000000000006000830152602082019050919050565b60006109c3602283610cb9565b91507f50726f6a656374207072696365206d757374206265206e6f6e2d6e656761746960008301527f76650000000000000000000000000000000000000000000000000000000000006020830152604082019050919050565b6000610a29601983610cb9565b91507f50726f6a65637420616c726561647920707572636861736564000000000000006000830152602082019050919050565b610a6581610d1a565b82525050565b60006020820190508181036000830152610a84816108b6565b9050919050565b60006020820190508181036000830152610aa4816108f6565b9050919050565b60006020820190508181036000830152610ac481610936565b9050919050565b60006020820190508181036000830152610ae481610976565b9050919050565b60006020820190508181036000830152610b04816109b6565b9050919050565b60006020820190508181036000830152610b2481610a1c565b9050919050565b6000602082019050610b406000830184610a5c565b92915050565b6000606082019050610b5b6000830186610a5c565b610b68602083018561085f565b610b756040830184610a5c565b949350505050565b600060a082019050610b926000830188610a5c565b8181036020830152610ba4818761087d565b90508181036040830152610bb8818661087d565b9050610bc76060830185610a5c565b610bd4608083018461085f565b9695505050505050565b600060c082019050610bf36000830189610a5c565b8181036020830152610c05818861087d565b90508181036040830152610c19818761087d565b9050610c286060830186610a5c565b610c356080830185610850565b610c4260a083018461086e565b979650505050505050565b6000604051905081810181811067ffffffffffffffff82111715610c7457610c73610e3f565b5b8060405250919050565b600067ffffffffffffffff821115610c9957610c98610e3f565b5b601f19601f8301169050602081019050919050565b600081519050919050565b600082825260208201905092915050565b6000610cd582610cfa565b9050919050565b6000610ce782610cfa565b9050919050565b60008115159050919050565b600073ffffffffffffffffffffffffffffffffffffffff82169050919050565b6000819050919050565b82818337600083830152505050565b60005b83811015610d51578082015181840152602081019050610d36565b83811115610d60576000848401525b50505050565b60006002820490506001821680610d7e57607f821691505b60208210811415610d9257610d91610e10565b5b50919050565b6000610da382610d1a565b91507fffffffffffffffffffffffffffffffffffffffffffffffffffffffffffffffff821415610dd657610dd5610de1565b5b600182019050919050565b7f4e487b7100000000000000000000000000000000000000000000000000000000600052601160045260246000fd5b7f4e487b7100000000000000000000000000000000000000000000000000000000600052602260045260246000fd5b7f4e487b7100000000000000000000000000000000000000000000000000000000600052604160045260246000fd5b6000601f19601f8301169050919050565b610e8881610d1a565b8114610e9357600080fd5b5056fea264697066735822122088948bef38b6c9968eda189d63982888526a10100c2096c9b3f0bc7ff337b8ce64736f6c63430008000033",
  "immutableReferences": {},
  "source": "// SPDX-License-Identifier: MIT\r\npragma solidity ^0.8.0;\r\n\r\ncontract Marketplace {\r\n    struct Project {\r\n        uint256 id;\r\n        string title;\r\n        string description;\r\n        uint256 price;\r\n        address payable owner;\r\n        bool purchased;\r\n    }\r\n\r\n    mapping(uint256 => Project) public projects;\r\n    uint256 public projectCount;\r\n\r\n    event ProjectCreated(\r\n        uint256 id,\r\n        string title,\r\n        string description,\r\n        uint256 price,\r\n        address owner\r\n    );\r\n\r\n    event ProjectPurchased(\r\n        uint256 id,\r\n        address buyer,\r\n        uint256 value\r\n    );\r\n\r\n    function createProject(string memory _title, string memory _description, uint256 _price) public {\r\n        require(bytes(_title).length > 0, \"Project title is required\");\r\n        require(bytes(_description).length > 0, \"Project description is required\");\r\n        require(_price >= 0, \"Project price must be non-negative\");\r\n\r\n        projectCount++;\r\n        projects[projectCount] = Project(projectCount, _title, _description, _price, payable(msg.sender), false);\r\n        \r\n        emit ProjectCreated(projectCount, _title, _description, _price, msg.sender);\r\n    }\r\n\r\n    function purchaseProject(uint256 _projectId) public payable {\r\n        require(_projectId > 0 && _projectId <= projectCount, \"Invalid project ID\");\r\n        Project storage project = projects[_projectId];\r\n        \r\n        require(!project.purchased, \"Project already purchased\");\r\n        if (project.price > 0) {\r\n            require(msg.value >= project.price, \"Insufficient funds\");\r\n        }\r\n\r\n        project.purchased = true;\r\n        project.owner.transfer(msg.value); // Transfer funds to the project owner\r\n        emit ProjectPurchased(_projectId, msg.sender, msg.value);\r\n    }\r\n}\r\n",
  "sourcePath": "D:\\IntertWIN\\IntertWIN\\blockchain\\contracts\\Marketplace.sol",
  "compiler": {
    "name": "solc",
    "version": "0.8.0+commit.c7dfd78e.Emscripten.clang"
  },
  "schemaVersion": "3.4.16",
  "updatedAt": "2024-10-18T16:51:15.498Z",
  "networkType": "ethereum",
  "devdoc": {
    "kind": "dev",
    "methods": {},
    "version": 1
  },
  "userdoc": {
    "kind": "user",
    "methods": {},
    "version": 1
  }
}